{
  "contractName": "OrderRegistry",
  "abi": [
    {
      "anonymous": false,
      "inputs": [
        {
          "indexed": false,
          "internalType": "string",
          "name": "orderno",
          "type": "string"
        }
      ],
      "name": "MfgTrigger",
      "type": "event"
    },
    {
      "anonymous": false,
      "inputs": [
        {
          "indexed": false,
          "internalType": "string",
          "name": "orderno",
          "type": "string"
        }
      ],
      "name": "OrderGenerated",
      "type": "event"
    },
    {
      "anonymous": false,
      "inputs": [
        {
          "indexed": false,
          "internalType": "string",
          "name": "orderno",
          "type": "string"
        },
        {
          "indexed": false,
          "internalType": "uint256",
          "name": "category",
          "type": "uint256"
        },
        {
          "indexed": false,
          "internalType": "string",
          "name": "report",
          "type": "string"
        }
      ],
      "name": "ReportSubmit",
      "type": "event"
    },
    {
      "anonymous": false,
      "inputs": [
        {
          "indexed": false,
          "internalType": "string",
          "name": "orderno",
          "type": "string"
        }
      ],
      "name": "SupplyTrigger",
      "type": "event"
    },
    {
      "constant": false,
      "inputs": [
        {
          "internalType": "string",
          "name": "orderno",
          "type": "string"
        },
        {
          "internalType": "string",
          "name": "product",
          "type": "string"
        },
        {
          "internalType": "string",
          "name": "value",
          "type": "string"
        },
        {
          "internalType": "string",
          "name": "quantity",
          "type": "string"
        },
        {
          "internalType": "string",
          "name": "delivery",
          "type": "string"
        }
      ],
      "name": "createOrder",
      "outputs": [],
      "payable": false,
      "stateMutability": "nonpayable",
      "type": "function"
    },
    {
      "constant": false,
      "inputs": [
        {
          "internalType": "string",
          "name": "orderno",
          "type": "string"
        },
        {
          "internalType": "string",
          "name": "name",
          "type": "string"
        },
        {
          "internalType": "string",
          "name": "delivery",
          "type": "string"
        },
        {
          "internalType": "string",
          "name": "value",
          "type": "string"
        },
        {
          "internalType": "string",
          "name": "quantity",
          "type": "string"
        }
      ],
      "name": "setDistValues",
      "outputs": [],
      "payable": false,
      "stateMutability": "nonpayable",
      "type": "function"
    },
    {
      "constant": false,
      "inputs": [
        {
          "internalType": "string",
          "name": "orderno",
          "type": "string"
        },
        {
          "internalType": "string",
          "name": "name",
          "type": "string"
        },
        {
          "internalType": "string",
          "name": "material",
          "type": "string"
        },
        {
          "internalType": "string",
          "name": "delivery",
          "type": "string"
        },
        {
          "internalType": "string",
          "name": "value",
          "type": "string"
        },
        {
          "internalType": "string",
          "name": "quantity",
          "type": "string"
        }
      ],
      "name": "setMfgValues",
      "outputs": [],
      "payable": false,
      "stateMutability": "nonpayable",
      "type": "function"
    },
    {
      "constant": false,
      "inputs": [
        {
          "internalType": "string",
          "name": "orderno",
          "type": "string"
        },
        {
          "internalType": "uint256",
          "name": "category",
          "type": "uint256"
        },
        {
          "internalType": "string",
          "name": "report",
          "type": "string"
        }
      ],
      "name": "setReport",
      "outputs": [],
      "payable": false,
      "stateMutability": "nonpayable",
      "type": "function"
    },
    {
      "constant": true,
      "inputs": [
        {
          "internalType": "string",
          "name": "orderno",
          "type": "string"
        },
        {
          "internalType": "uint256",
          "name": "category",
          "type": "uint256"
        }
      ],
      "name": "getReport",
      "outputs": [
        {
          "internalType": "string",
          "name": "",
          "type": "string"
        }
      ],
      "payable": false,
      "stateMutability": "view",
      "type": "function"
    },
    {
      "constant": true,
      "inputs": [
        {
          "internalType": "string",
          "name": "orderno",
          "type": "string"
        }
      ],
      "name": "fetchInitialDetails",
      "outputs": [
        {
          "internalType": "string",
          "name": "",
          "type": "string"
        },
        {
          "internalType": "string",
          "name": "",
          "type": "string"
        },
        {
          "internalType": "string",
          "name": "",
          "type": "string"
        },
        {
          "internalType": "string",
          "name": "",
          "type": "string"
        },
        {
          "internalType": "string",
          "name": "",
          "type": "string"
        }
      ],
      "payable": false,
      "stateMutability": "view",
      "type": "function"
    },
    {
      "constant": true,
      "inputs": [
        {
          "internalType": "string",
          "name": "orderno",
          "type": "string"
        }
      ],
      "name": "getDistValues",
      "outputs": [
        {
          "internalType": "string",
          "name": "",
          "type": "string"
        },
        {
          "internalType": "string",
          "name": "",
          "type": "string"
        },
        {
          "internalType": "string",
          "name": "",
          "type": "string"
        },
        {
          "internalType": "string",
          "name": "",
          "type": "string"
        }
      ],
      "payable": false,
      "stateMutability": "view",
      "type": "function"
    },
    {
      "constant": true,
      "inputs": [
        {
          "internalType": "string",
          "name": "orderno",
          "type": "string"
        }
      ],
      "name": "getMfgDetails",
      "outputs": [
        {
          "internalType": "string",
          "name": "",
          "type": "string"
        },
        {
          "internalType": "string",
          "name": "",
          "type": "string"
        },
        {
          "internalType": "string",
          "name": "",
          "type": "string"
        },
        {
          "internalType": "string",
          "name": "",
          "type": "string"
        },
        {
          "internalType": "string",
          "name": "",
          "type": "string"
        }
      ],
      "payable": false,
      "stateMutability": "view",
      "type": "function"
    }
  ],
  "bytecode": "0x608060405234801561001057600080fd5b50613386806100206000396000f3fe608060405234801561001057600080fd5b50600436106100885760003560e01c806375cfa1981161005b57806375cfa198146108835780637972d07914610b9a57806387d517c914610f48578063baaa3eef1461122c57610088565b806302f20b9c1461008d578063365ede48146101cb57806363727449146103275780636c4636351461060b575b600080fd5b610150600480360360408110156100a357600080fd5b81019080803590602001906401000000008111156100c057600080fd5b8201836020820111156100d257600080fd5b803590602001918460018302840111640100000000831117156100f457600080fd5b91908080601f016020809104026020016040519081016040528093929190818152602001838380828437600081840152601f19601f82011690508083019250505050505050919291929080359060200190929190505050611543565b6040518080602001828103825283818151815260200191508051906020019080838360005b83811015610190578082015181840152602081019050610175565b50505050905090810190601f1680156101bd5780820380516001836020036101000a031916815260200191505b509250505060405180910390f35b610325600480360360608110156101e157600080fd5b81019080803590602001906401000000008111156101fe57600080fd5b82018360208201111561021057600080fd5b8035906020019184600183028401116401000000008311171561023257600080fd5b91908080601f016020809104026020016040519081016040528093929190818152602001838380828437600081840152601f19601f820116905080830192505050505050509192919290803590602001909291908035906020019064010000000081111561029f57600080fd5b8201836020820111156102b157600080fd5b803590602001918460018302840111640100000000831117156102d357600080fd5b91908080601f016020809104026020016040519081016040528093929190818152602001838380828437600081840152601f19601f8201169050808301925050505050505091929192905050506118c3565b005b6103e06004803603602081101561033d57600080fd5b810190808035906020019064010000000081111561035a57600080fd5b82018360208201111561036c57600080fd5b8035906020019184600183028401116401000000008311171561038e57600080fd5b91908080601f016020809104026020016040519081016040528093929190818152602001838380828437600081840152601f19601f820116905080830192505050505050509192919290505050611b7a565b60405180806020018060200180602001806020018060200186810386528b818151815260200191508051906020019080838360005b83811015610430578082015181840152602081019050610415565b50505050905090810190601f16801561045d5780820380516001836020036101000a031916815260200191505b5086810385528a818151815260200191508051906020019080838360005b8381101561049657808201518184015260208101905061047b565b50505050905090810190601f1680156104c35780820380516001836020036101000a031916815260200191505b50868103845289818151815260200191508051906020019080838360005b838110156104fc5780820151818401526020810190506104e1565b50505050905090810190601f1680156105295780820380516001836020036101000a031916815260200191505b50868103835288818151815260200191508051906020019080838360005b83811015610562578082015181840152602081019050610547565b50505050905090810190601f16801561058f5780820380516001836020036101000a031916815260200191505b50868103825287818151815260200191508051906020019080838360005b838110156105c85780820151818401526020810190506105ad565b50505050905090810190601f1680156105f55780820380516001836020036101000a031916815260200191505b509a505050505050505050505060405180910390f35b6106c46004803603602081101561062157600080fd5b810190808035906020019064010000000081111561063e57600080fd5b82018360208201111561065057600080fd5b8035906020019184600183028401116401000000008311171561067257600080fd5b91908080601f016020809104026020016040519081016040528093929190818152602001838380828437600081840152601f19601f8201169050808301925050505050505091929192905050506120bd565b6040518080602001806020018060200180602001858103855289818151815260200191508051906020019080838360005b838110156107105780820151818401526020810190506106f5565b50505050905090810190601f16801561073d5780820380516001836020036101000a031916815260200191505b50858103845288818151815260200191508051906020019080838360005b8381101561077657808201518184015260208101905061075b565b50505050905090810190601f1680156107a35780820380516001836020036101000a031916815260200191505b50858103835287818151815260200191508051906020019080838360005b838110156107dc5780820151818401526020810190506107c1565b50505050905090810190601f1680156108095780820380516001836020036101000a031916815260200191505b50858103825286818151815260200191508051906020019080838360005b83811015610842578082015181840152602081019050610827565b50505050905090810190601f16801561086f5780820380516001836020036101000a031916815260200191505b509850505050505050505060405180910390f35b610b98600480360360a081101561089957600080fd5b81019080803590602001906401000000008111156108b657600080fd5b8201836020820111156108c857600080fd5b803590602001918460018302840111640100000000831117156108ea57600080fd5b91908080601f016020809104026020016040519081016040528093929190818152602001838380828437600081840152601f19601f8201169050808301925050505050505091929192908035906020019064010000000081111561094d57600080fd5b82018360208201111561095f57600080fd5b8035906020019184600183028401116401000000008311171561098157600080fd5b91908080601f016020809104026020016040519081016040528093929190818152602001838380828437600081840152601f19601f820116905080830192505050505050509192919290803590602001906401000000008111156109e457600080fd5b8201836020820111156109f657600080fd5b80359060200191846001830284011164010000000083111715610a1857600080fd5b91908080601f016020809104026020016040519081016040528093929190818152602001838380828437600081840152601f19601f82011690508083019250505050505050919291929080359060200190640100000000811115610a7b57600080fd5b820183602082011115610a8d57600080fd5b80359060200191846001830284011164010000000083111715610aaf57600080fd5b91908080601f016020809104026020016040519081016040528093929190818152602001838380828437600081840152601f19601f82011690508083019250505050505050919291929080359060200190640100000000811115610b1257600080fd5b820183602082011115610b2457600080fd5b80359060200191846001830284011164010000000083111715610b4657600080fd5b91908080601f016020809104026020016040519081016040528093929190818152602001838380828437600081840152601f19601f8201169050808301925050505050505091929192905050506124f2565b005b610f46600480360360c0811015610bb057600080fd5b8101908080359060200190640100000000811115610bcd57600080fd5b820183602082011115610bdf57600080fd5b80359060200191846001830284011164010000000083111715610c0157600080fd5b91908080601f016020809104026020016040519081016040528093929190818152602001838380828437600081840152601f19601f82011690508083019250505050505050919291929080359060200190640100000000811115610c6457600080fd5b820183602082011115610c7657600080fd5b80359060200191846001830284011164010000000083111715610c9857600080fd5b91908080601f016020809104026020016040519081016040528093929190818152602001838380828437600081840152601f19601f82011690508083019250505050505050919291929080359060200190640100000000811115610cfb57600080fd5b820183602082011115610d0d57600080fd5b80359060200191846001830284011164010000000083111715610d2f57600080fd5b91908080601f016020809104026020016040519081016040528093929190818152602001838380828437600081840152601f19601f82011690508083019250505050505050919291929080359060200190640100000000811115610d9257600080fd5b820183602082011115610da457600080fd5b80359060200191846001830284011164010000000083111715610dc657600080fd5b91908080601f016020809104026020016040519081016040528093929190818152602001838380828437600081840152601f19601f82011690508083019250505050505050919291929080359060200190640100000000811115610e2957600080fd5b820183602082011115610e3b57600080fd5b80359060200191846001830284011164010000000083111715610e5d57600080fd5b91908080601f016020809104026020016040519081016040528093929190818152602001838380828437600081840152601f19601f82011690508083019250505050505050919291929080359060200190640100000000811115610ec057600080fd5b820183602082011115610ed257600080fd5b80359060200191846001830284011164010000000083111715610ef457600080fd5b91908080601f016020809104026020016040519081016040528093929190818152602001838380828437600081840152601f19601f820116905080830192505050505050509192919290505050612799565b005b61100160048036036020811015610f5e57600080fd5b8101908080359060200190640100000000811115610f7b57600080fd5b820183602082011115610f8d57600080fd5b80359060200191846001830284011164010000000083111715610faf57600080fd5b91908080601f016020809104026020016040519081016040528093929190818152602001838380828437600081840152601f19601f820116905080830192505050505050509192919290505050612ac2565b60405180806020018060200180602001806020018060200186810386528b818151815260200191508051906020019080838360005b83811015611051578082015181840152602081019050611036565b50505050905090810190601f16801561107e5780820380516001836020036101000a031916815260200191505b5086810385528a818151815260200191508051906020019080838360005b838110156110b757808201518184015260208101905061109c565b50505050905090810190601f1680156110e45780820380516001836020036101000a031916815260200191505b50868103845289818151815260200191508051906020019080838360005b8381101561111d578082015181840152602081019050611102565b50505050905090810190601f16801561114a5780820380516001836020036101000a031916815260200191505b50868103835288818151815260200191508051906020019080838360005b83811015611183578082015181840152602081019050611168565b50505050905090810190601f1680156111b05780820380516001836020036101000a031916815260200191505b50868103825287818151815260200191508051906020019080838360005b838110156111e95780820151818401526020810190506111ce565b50505050905090810190601f1680156112165780820380516001836020036101000a031916815260200191505b509a505050505050505050505060405180910390f35b611541600480360360a081101561124257600080fd5b810190808035906020019064010000000081111561125f57600080fd5b82018360208201111561127157600080fd5b8035906020019184600183028401116401000000008311171561129357600080fd5b91908080601f016020809104026020016040519081016040528093929190818152602001838380828437600081840152601f19601f820116905080830192505050505050509192919290803590602001906401000000008111156112f657600080fd5b82018360208201111561130857600080fd5b8035906020019184600183028401116401000000008311171561132a57600080fd5b91908080601f016020809104026020016040519081016040528093929190818152602001838380828437600081840152601f19601f8201169050808301925050505050505091929192908035906020019064010000000081111561138d57600080fd5b82018360208201111561139f57600080fd5b803590602001918460018302840111640100000000831117156113c157600080fd5b91908080601f016020809104026020016040519081016040528093929190818152602001838380828437600081840152601f19601f8201169050808301925050505050505091929192908035906020019064010000000081111561142457600080fd5b82018360208201111561143657600080fd5b8035906020019184600183028401116401000000008311171561145857600080fd5b91908080601f016020809104026020016040519081016040528093929190818152602001838380828437600081840152601f19601f820116905080830192505050505050509192919290803590602001906401000000008111156114bb57600080fd5b8201836020820111156114cd57600080fd5b803590602001918460018302840111640100000000831117156114ef57600080fd5b91908080601f016020809104026020016040519081016040528093929190818152602001838380828437600081840152601f19601f820116905080830192505050505050509192919290505050613005565b005b6060600182141561165a576000836040518082805190602001908083835b602083106115845780518252602082019150602081019050602083039250611561565b6001836020036101000a03801982511681845116808217855250505050505090500191505090815260200160405180910390206005018054600181600116156101000203166002900480601f01602080910402602001604051908101604052809291908181526020018280546001816001161561010002031660029004801561164e5780601f106116235761010080835404028352916020019161164e565b820191906000526020600020905b81548152906001019060200180831161163157829003601f168201915b505050505090506118bd565b600282141561176f576000836040518082805190602001908083835b602083106116995780518252602082019150602081019050602083039250611676565b6001836020036101000a03801982511681845116808217855250505050505090500191505090815260200160405180910390206004018054600181600116156101000203166002900480601f0160208091040260200160405190810160405280929190818152602001828054600181600116156101000203166002900480156117635780601f1061173857610100808354040283529160200191611763565b820191906000526020600020905b81548152906001019060200180831161174657829003601f168201915b505050505090506118bd565b6003821415611884576000836040518082805190602001908083835b602083106117ae578051825260208201915060208101905060208303925061178b565b6001836020036101000a03801982511681845116808217855250505050505090500191505090815260200160405180910390206003018054600181600116156101000203166002900480601f0160208091040260200160405190810160405280929190818152602001828054600181600116156101000203166002900480156118785780601f1061184d57610100808354040283529160200191611878565b820191906000526020600020905b81548152906001019060200180831161185b57829003601f168201915b505050505090506118bd565b6040518060400160405280600981526020017f756e646566696e6564000000000000000000000000000000000000000000000081525090505b92915050565b600182141561194e57806000846040518082805190602001908083835b6020831061190357805182526020820191506020810190506020830392506118e0565b6001836020036101000a0380198251168184511680821785525050505050509050019150509081526020016040518091039020600501908051906020019061194c9291906132ac565b505b60028214156119d957806000846040518082805190602001908083835b6020831061198e578051825260208201915060208101905060208303925061196b565b6001836020036101000a038019825116818451168082178552505050505050905001915050908152602001604051809103902060040190805190602001906119d79291906132ac565b505b6003821415611a6457806000846040518082805190602001908083835b60208310611a1957805182526020820191506020810190506020830392506119f6565b6001836020036101000a03801982511681845116808217855250505050505090500191505090815260200160405180910390206003019080519060200190611a629291906132ac565b505b7fd9b0f0df633a148a4fe7319855c86248356bd58d003cabe1fc554c4a32eee836838383604051808060200184815260200180602001838103835286818151815260200191508051906020019080838360005b83811015611ad2578082015181840152602081019050611ab7565b50505050905090810190601f168015611aff5780820380516001836020036101000a031916815260200191505b50838103825284818151815260200191508051906020019080838360005b83811015611b38578082015181840152602081019050611b1d565b50505050905090810190601f168015611b655780820380516001836020036101000a031916815260200191505b509550505050505060405180910390a1505050565b60608060608060606000866040518082805190602001908083835b60208310611bb85780518252602082019150602081019050602083039250611b95565b6001836020036101000a03801982511681845116808217855250505050505090500191505090815260200160405180910390206001016000876040518082805190602001908083835b60208310611c245780518252602082019150602081019050602083039250611c01565b6001836020036101000a0380198251168184511680821785525050505050509050019150509081526020016040518091039020600c016000886040518082805190602001908083835b60208310611c905780518252602082019150602081019050602083039250611c6d565b6001836020036101000a03801982511681845116808217855250505050505090500191505090815260200160405180910390206009016000896040518082805190602001908083835b60208310611cfc5780518252602082019150602081019050602083039250611cd9565b6001836020036101000a038019825116818451168082178552505050505050905001915050908152602001604051809103902060060160008a6040518082805190602001908083835b60208310611d685780518252602082019150602081019050602083039250611d45565b6001836020036101000a0380198251168184511680821785525050505050509050019150509081526020016040518091039020601101848054600181600116156101000203166002900480601f016020809104026020016040519081016040528092919081815260200182805460018160011615610100020316600290048015611e335780601f10611e0857610100808354040283529160200191611e33565b820191906000526020600020905b815481529060010190602001808311611e1657829003601f168201915b50505050509450838054600181600116156101000203166002900480601f016020809104026020016040519081016040528092919081815260200182805460018160011615610100020316600290048015611ecf5780601f10611ea457610100808354040283529160200191611ecf565b820191906000526020600020905b815481529060010190602001808311611eb257829003601f168201915b50505050509350828054600181600116156101000203166002900480601f016020809104026020016040519081016040528092919081815260200182805460018160011615610100020316600290048015611f6b5780601f10611f4057610100808354040283529160200191611f6b565b820191906000526020600020905b815481529060010190602001808311611f4e57829003601f168201915b50505050509250818054600181600116156101000203166002900480601f0160208091040260200160405190810160405280929190818152602001828054600181600116156101000203166002900480156120075780601f10611fdc57610100808354040283529160200191612007565b820191906000526020600020905b815481529060010190602001808311611fea57829003601f168201915b50505050509150808054600181600116156101000203166002900480601f0160208091040260200160405190810160405280929190818152602001828054600181600116156101000203166002900480156120a35780601f10612078576101008083540402835291602001916120a3565b820191906000526020600020905b81548152906001019060200180831161208657829003601f168201915b505050505090509450945094509450945091939590929450565b6060806060806000856040518082805190602001908083835b602083106120f957805182526020820191506020810190506020830392506120d6565b6001836020036101000a03801982511681845116808217855250505050505090500191505090815260200160405180910390206002016000866040518082805190602001908083835b602083106121655780518252602082019150602081019050602083039250612142565b6001836020036101000a0380198251168184511680821785525050505050509050019150509081526020016040518091039020600d016000876040518082805190602001908083835b602083106121d157805182526020820191506020810190506020830392506121ae565b6001836020036101000a0380198251168184511680821785525050505050509050019150509081526020016040518091039020600a016000886040518082805190602001908083835b6020831061223d578051825260208201915060208101905060208303925061221a565b6001836020036101000a0380198251168184511680821785525050505050509050019150509081526020016040518091039020600701838054600181600116156101000203166002900480601f0160208091040260200160405190810160405280929190818152602001828054600181600116156101000203166002900480156123085780601f106122dd57610100808354040283529160200191612308565b820191906000526020600020905b8154815290600101906020018083116122eb57829003601f168201915b50505050509350828054600181600116156101000203166002900480601f0160208091040260200160405190810160405280929190818152602001828054600181600116156101000203166002900480156123a45780601f10612379576101008083540402835291602001916123a4565b820191906000526020600020905b81548152906001019060200180831161238757829003601f168201915b50505050509250818054600181600116156101000203166002900480601f0160208091040260200160405190810160405280929190818152602001828054600181600116156101000203166002900480156124405780601f1061241557610100808354040283529160200191612440565b820191906000526020600020905b81548152906001019060200180831161242357829003601f168201915b50505050509150808054600181600116156101000203166002900480601f0160208091040260200160405190810160405280929190818152602001828054600181600116156101000203166002900480156124dc5780601f106124b1576101008083540402835291602001916124dc565b820191906000526020600020905b8154815290600101906020018083116124bf57829003601f168201915b5050505050905093509350935093509193509193565b836000866040518082805190602001908083835b602083106125295780518252602082019150602081019050602083039250612506565b6001836020036101000a038019825116818451168082178552505050505050905001915050908152602001604051809103902060100190805190602001906125729291906132ac565b50826000866040518082805190602001908083835b602083106125aa5780518252602082019150602081019050602083039250612587565b6001836020036101000a0380198251168184511680821785525050505050509050019150509081526020016040518091039020600b0190805190602001906125f39291906132ac565b50816000866040518082805190602001908083835b6020831061262b5780518252602082019150602081019050602083039250612608565b6001836020036101000a038019825116818451168082178552505050505050905001915050908152602001604051809103902060080190805190602001906126749291906132ac565b50806000866040518082805190602001908083835b602083106126ac5780518252602082019150602081019050602083039250612689565b6001836020036101000a0380198251168184511680821785525050505050509050019150509081526020016040518091039020600e0190805190602001906126f59291906132ac565b507f49a8e1507a6f693a113e03a6b7d2ca032ebdf2908f1fcbc1b021ed7845cadf8a856040518080602001828103825283818151815260200191508051906020019080838360005b8381101561275857808201518184015260208101905061273d565b50505050905090810190601f1680156127855780820380516001836020036101000a031916815260200191505b509250505060405180910390a15050505050565b846000876040518082805190602001908083835b602083106127d057805182526020820191506020810190506020830392506127ad565b6001836020036101000a038019825116818451168082178552505050505050905001915050908152602001604051809103902060010190805190602001906128199291906132ac565b50826000876040518082805190602001908083835b60208310612851578051825260208201915060208101905060208303925061282e565b6001836020036101000a0380198251168184511680821785525050505050509050019150509081526020016040518091039020600c01908051906020019061289a9291906132ac565b50816000876040518082805190602001908083835b602083106128d257805182526020820191506020810190506020830392506128af565b6001836020036101000a0380198251168184511680821785525050505050509050019150509081526020016040518091039020600901908051906020019061291b9291906132ac565b50806000876040518082805190602001908083835b602083106129535780518252602082019150602081019050602083039250612930565b6001836020036101000a0380198251168184511680821785525050505050509050019150509081526020016040518091039020600601908051906020019061299c9291906132ac565b50836000876040518082805190602001908083835b602083106129d457805182526020820191506020810190506020830392506129b1565b6001836020036101000a03801982511681845116808217855250505050505090500191505090815260200160405180910390206011019080519060200190612a1d9291906132ac565b507fa5e5df1b20cfee00f20330f3b591592f6c22c05c855ac7245839cef3545f7204866040518080602001828103825283818151815260200191508051906020019080838360005b83811015612a80578082015181840152602081019050612a65565b50505050905090810190601f168015612aad5780820380516001836020036101000a031916815260200191505b509250505060405180910390a1505050505050565b60608060608060606000866040518082805190602001908083835b60208310612b005780518252602082019150602081019050602083039250612add565b6001836020036101000a03801982511681845116808217855250505050505090500191505090815260200160405180910390206010016000876040518082805190602001908083835b60208310612b6c5780518252602082019150602081019050602083039250612b49565b6001836020036101000a0380198251168184511680821785525050505050509050019150509081526020016040518091039020600f016000886040518082805190602001908083835b60208310612bd85780518252602082019150602081019050602083039250612bb5565b6001836020036101000a0380198251168184511680821785525050505050509050019150509081526020016040518091039020600b016000896040518082805190602001908083835b60208310612c445780518252602082019150602081019050602083039250612c21565b6001836020036101000a038019825116818451168082178552505050505050905001915050908152602001604051809103902060080160008a6040518082805190602001908083835b60208310612cb05780518252602082019150602081019050602083039250612c8d565b6001836020036101000a0380198251168184511680821785525050505050509050019150509081526020016040518091039020600e01848054600181600116156101000203166002900480601f016020809104026020016040519081016040528092919081815260200182805460018160011615610100020316600290048015612d7b5780601f10612d5057610100808354040283529160200191612d7b565b820191906000526020600020905b815481529060010190602001808311612d5e57829003601f168201915b50505050509450838054600181600116156101000203166002900480601f016020809104026020016040519081016040528092919081815260200182805460018160011615610100020316600290048015612e175780601f10612dec57610100808354040283529160200191612e17565b820191906000526020600020905b815481529060010190602001808311612dfa57829003601f168201915b50505050509350828054600181600116156101000203166002900480601f016020809104026020016040519081016040528092919081815260200182805460018160011615610100020316600290048015612eb35780601f10612e8857610100808354040283529160200191612eb3565b820191906000526020600020905b815481529060010190602001808311612e9657829003601f168201915b50505050509250818054600181600116156101000203166002900480601f016020809104026020016040519081016040528092919081815260200182805460018160011615610100020316600290048015612f4f5780601f10612f2457610100808354040283529160200191612f4f565b820191906000526020600020905b815481529060010190602001808311612f3257829003601f168201915b50505050509150808054600181600116156101000203166002900480601f016020809104026020016040519081016040528092919081815260200182805460018160011615610100020316600290048015612feb5780601f10612fc057610100808354040283529160200191612feb565b820191906000526020600020905b815481529060010190602001808311612fce57829003601f168201915b505050505090509450945094509450945091939590929450565b836000866040518082805190602001908083835b6020831061303c5780518252602082019150602081019050602083039250613019565b6001836020036101000a038019825116818451168082178552505050505050905001915050908152602001604051809103902060020190805190602001906130859291906132ac565b50826000866040518082805190602001908083835b602083106130bd578051825260208201915060208101905060208303925061309a565b6001836020036101000a0380198251168184511680821785525050505050509050019150509081526020016040518091039020600d0190805190602001906131069291906132ac565b50816000866040518082805190602001908083835b6020831061313e578051825260208201915060208101905060208303925061311b565b6001836020036101000a0380198251168184511680821785525050505050509050019150509081526020016040518091039020600a0190805190602001906131879291906132ac565b50806000866040518082805190602001908083835b602083106131bf578051825260208201915060208101905060208303925061319c565b6001836020036101000a038019825116818451168082178552505050505050905001915050908152602001604051809103902060070190805190602001906132089291906132ac565b507f99d100a02e30d6fbe9128c70416db30063e0eb352d3961159f35ab3471a37fc3856040518080602001828103825283818151815260200191508051906020019080838360005b8381101561326b578082015181840152602081019050613250565b50505050905090810190601f1680156132985780820380516001836020036101000a031916815260200191505b509250505060405180910390a15050505050565b828054600181600116156101000203166002900490600052602060002090601f016020900481019282601f106132ed57805160ff191683800117855561331b565b8280016001018555821561331b579182015b8281111561331a5782518255916020019190600101906132ff565b5b509050613328919061332c565b5090565b61334e91905b8082111561334a576000816000905550600101613332565b5090565b9056fea265627a7a723158205fffd6a7633e4a605efc2953199e31cd0fe294958e8a39f42bb674681bde765164736f6c63430005100032",
  "source": "pragma solidity ^0.5.0;\n\n\ncontract OrderRegistry {\n  struct Order {\n    string supplier_name;\n    string mfg_name;\n    string dist_name;\n\n    string supplier_report;\n    string mfg_report;\n    string dist_report;\n\n    string supplier_quantity;\n    string mfg_quantity;\n    string dist_quantity;\n\n    string supplier_value;\n    string mfg_value;\n    string dist_value;\n\n    string supplier_date;\n    string mfg_date;\n    string dist_date;\n\n    string thresh_temp;\n    string product_name;\n    string raw_material_name;\n\n  }\n\n  mapping(string=>Order) registry;\n\n  event OrderGenerated(string orderno);\n  event MfgTrigger(string orderno);\n  event SupplyTrigger(string orderno);\n  event ReportSubmit(string orderno, uint category, string report);\n\n  function createOrder(string memory orderno, string memory product, string memory value, string memory quantity, string memory delivery) public {\n    registry[orderno].product_name = product;\n    registry[orderno].dist_value = value;\n    registry[orderno].dist_quantity = quantity;\n    registry[orderno].dist_date = delivery;\n    emit OrderGenerated(orderno);\n  }\n\n  function setDistValues(string memory orderno, string memory name, string memory delivery, string memory value, string memory quantity) public {\n    registry[orderno].dist_name = name;\n    registry[orderno].mfg_date = delivery;\n    registry[orderno].mfg_value = value;\n    registry[orderno].mfg_quantity = quantity;\n    emit MfgTrigger(orderno);\n  }\n\n  function setMfgValues(string memory orderno, string memory name, string memory material, string memory delivery, string memory value, string memory quantity) public {\n    registry[orderno].mfg_name = name;\n    registry[orderno].supplier_date = delivery;\n    registry[orderno].supplier_value = value;\n    registry[orderno].supplier_quantity = quantity;\n    registry[orderno].raw_material_name = material;\n    emit SupplyTrigger(orderno);\n  }\n\n  function setReport(string memory orderno,uint category, string memory report) public {\n    if(category == 1) {\n      registry[orderno].dist_report = report;\n    }\n    if( category == 2 ) {\n      registry[orderno].mfg_report = report;\n    }\n    if( category == 3 ) {\n      registry[orderno].supplier_report = report;\n    }\n    emit ReportSubmit(orderno, category, report);\n  }\n\n  function getReport(string memory orderno,uint category) public view returns(string memory) {\n    if(category == 1) {\n      return registry[orderno].dist_report;\n    }\n    if( category == 2 ) {\n      return registry[orderno].mfg_report;\n    }\n    if( category == 3 ) {\n      return registry[orderno].supplier_report;\n    }\n    return \"undefined\";\n  }\n\n  function fetchInitialDetails(string memory orderno) public view returns(string memory, string memory, string memory,string memory, string memory) {\n    return (registry[orderno].product_name,\n            registry[orderno].thresh_temp,\n            registry[orderno].dist_value,\n            registry[orderno].dist_quantity,\n            registry[orderno].dist_date);\n  }\n\n  function getDistValues(string memory orderno) public view returns(string memory, string memory, string memory, string memory) {\n    return (registry[orderno].dist_name , registry[orderno].mfg_date,\n            registry[orderno].mfg_value, registry[orderno].mfg_quantity);\n  }\n\n  function getMfgDetails(string memory orderno) public view returns(string memory,string memory,string memory,string memory,string memory) {\n    return (registry[orderno].mfg_name,\n    registry[orderno].supplier_date,\n    registry[orderno].supplier_value,\n    registry[orderno].supplier_quantity,\n    registry[orderno].raw_material_name);\n  }\n\n}\n",
  "sourcePath": "/home/vedant/Project-SCM-batch/contracts/OrderRegistry.sol",
  "compiler": {
    "name": "solc",
    "version": "0.5.16+commit.9c3226ce.Emscripten.clang"
  },
  "schemaVersion": "3.1.0",
  "updatedAt": "2020-05-25T18:47:11.302Z",
  "networkType": "ethereum",
  "devdoc": {
    "methods": {}
  },
  "userdoc": {
    "methods": {}
  }
}