{
  "contractName": "UserRegistry",
  "abi": [
    {
      "constant": true,
      "inputs": [],
      "name": "owner",
      "outputs": [
        {
          "internalType": "address",
          "name": "",
          "type": "address"
        }
      ],
      "payable": false,
      "stateMutability": "view",
      "type": "function"
    },
    {
      "constant": false,
      "inputs": [
        {
          "internalType": "string",
          "name": "addr",
          "type": "string"
        },
        {
          "internalType": "string",
          "name": "role",
          "type": "string"
        }
      ],
      "name": "setRole",
      "outputs": [],
      "payable": false,
      "stateMutability": "nonpayable",
      "type": "function"
    },
    {
      "constant": true,
      "inputs": [
        {
          "internalType": "string",
          "name": "addr",
          "type": "string"
        }
      ],
      "name": "getRole",
      "outputs": [
        {
          "internalType": "string",
          "name": "",
          "type": "string"
        }
      ],
      "payable": false,
      "stateMutability": "view",
      "type": "function"
    }
  ],
  "bytecode": "0x6080604052336000806101000a81548173ffffffffffffffffffffffffffffffffffffffff021916908373ffffffffffffffffffffffffffffffffffffffff16021790555034801561005057600080fd5b506105fd806100606000396000f3fe608060405234801561001057600080fd5b50600436106100415760003560e01c80636e9067fb146100465780638da5cb5b1461017a578063d0799bee146101c4575b600080fd5b6100ff6004803603602081101561005c57600080fd5b810190808035906020019064010000000081111561007957600080fd5b82018360208201111561008b57600080fd5b803590602001918460018302840111640100000000831117156100ad57600080fd5b91908080601f016020809104026020016040519081016040528093929190818152602001838380828437600081840152601f19601f820116905080830192505050505050509192919290505050610316565b6040518080602001828103825283818151815260200191508051906020019080838360005b8381101561013f578082015181840152602081019050610124565b50505050905090810190601f16801561016c5780820380516001836020036101000a031916815260200191505b509250505060405180910390f35b610182610421565b604051808273ffffffffffffffffffffffffffffffffffffffff1673ffffffffffffffffffffffffffffffffffffffff16815260200191505060405180910390f35b610314600480360360408110156101da57600080fd5b81019080803590602001906401000000008111156101f757600080fd5b82018360208201111561020957600080fd5b8035906020019184600183028401116401000000008311171561022b57600080fd5b91908080601f016020809104026020016040519081016040528093929190818152602001838380828437600081840152601f19601f8201169050808301925050505050505091929192908035906020019064010000000081111561028e57600080fd5b8201836020820111156102a057600080fd5b803590602001918460018302840111640100000000831117156102c257600080fd5b91908080601f016020809104026020016040519081016040528093929190818152602001838380828437600081840152601f19601f820116905080830192505050505050509192919290505050610446565b005b60606001826040518082805190602001908083835b6020831061034e578051825260208201915060208101905060208303925061032b565b6001836020036101000a03801982511681845116808217855250505050505090500191505090815260200160405180910390208054600181600116156101000203166002900480601f0160208091040260200160405190810160405280929190818152602001828054600181600116156101000203166002900480156104155780601f106103ea57610100808354040283529160200191610415565b820191906000526020600020905b8154815290600101906020018083116103f857829003601f168201915b50505050509050919050565b6000809054906101000a900473ffffffffffffffffffffffffffffffffffffffff1681565b6000809054906101000a900473ffffffffffffffffffffffffffffffffffffffff168073ffffffffffffffffffffffffffffffffffffffff163373ffffffffffffffffffffffffffffffffffffffff16146104a057600080fd5b816001846040518082805190602001908083835b602083106104d757805182526020820191506020810190506020830392506104b4565b6001836020036101000a0380198251168184511680821785525050505050509050019150509081526020016040518091039020908051906020019061051d929190610523565b50505050565b828054600181600116156101000203166002900490600052602060002090601f016020900481019282601f1061056457805160ff1916838001178555610592565b82800160010185558215610592579182015b82811115610591578251825591602001919060010190610576565b5b50905061059f91906105a3565b5090565b6105c591905b808211156105c15760008160009055506001016105a9565b5090565b9056fea265627a7a72315820afc0653eac8933d51eb5fbad8577198493511b48f873ee8fac40909da292bca564736f6c63430005100032",
  "source": "pragma solidity ^0.5.0;\n\n\ncontract UserRegistry {\n  address public owner = msg.sender;\n\n  mapping(string=>string) registry;\n\nmodifier onlyBy(address _account)\n    {\n        require(msg.sender == _account);\n        _;\n    }\n\n  function setRole (string memory addr, string memory role) public onlyBy(owner) {\n    registry[addr] = role;\n  }\n\n  function getRole (string memory addr) public view returns(string memory) {\n    return registry[addr];\n  }\n}\n",
  "sourcePath": "/home/vedant/Project-SCM-batch/contracts/UserRegistry.sol",
  "compiler": {
    "name": "solc",
    "version": "0.5.16+commit.9c3226ce.Emscripten.clang"
  },
  "schemaVersion": "3.1.0",
  "updatedAt": "2020-05-25T18:47:11.295Z",
  "networkType": "ethereum",
  "devdoc": {
    "methods": {}
  },
  "userdoc": {
    "methods": {}
  }
}